{
  "contractName": "Ownable",
  "abi": [
    {
      "inputs": [],
      "stateMutability": "nonpayable",
      "type": "constructor"
    },
    {
      "anonymous": false,
      "inputs": [
        {
          "indexed": true,
          "internalType": "address",
          "name": "previousOwner",
          "type": "address"
        },
        {
          "indexed": true,
          "internalType": "address",
          "name": "newOwner",
          "type": "address"
        }
      ],
      "name": "OwnershipTransferred",
      "type": "event"
    },
    {
      "inputs": [
        {
          "internalType": "address payable",
          "name": "newOwner",
          "type": "address"
        }
      ],
      "name": "transferOwnership",
      "outputs": [],
      "stateMutability": "nonpayable",
      "type": "function"
    }
  ],
  "bytecode": "0x608060405234801561001057600080fd5b50600080546001600160a01b0319163317905561010b806100326000396000f3fe6080604052348015600f57600080fd5b506004361060285760003560e01c8063f2fde38b14602d575b600080fd5b605060048036036020811015604157600080fd5b50356001600160a01b03166052565b005b6000546001600160a01b03163314606857600080fd5b6001600160a01b038116607a57600080fd5b600080546040516001600160a01b03808516939216917f8be0079c531659141344cd1fd0a4f28419497f9722a3daafe3b4186f6b6457e091a3600080546001600160a01b0319166001600160a01b039290921691909117905556fea26469706673582212209d499af35d9b6cf3eb469270b40fc96c9a0f5e12d2acc10accef5a0fdc5ca3a464736f6c63430006020033",
  "source": "/**\r\n *Submitted for verification at BscScan.com on 2021-05-25\r\n*/\r\n\r\n// SPDX-License-Identifier: MIT\r\n\r\npragma solidity >=0.6.2;\r\n\r\nlibrary SafeMath {\r\n    function mul(uint256 a, uint256 b) internal pure returns (uint256) {\r\n        uint256 c = a * b;\r\n        assert(a == 0 || c / a == b);\r\n        return c;\r\n    }\r\n\r\n    function div(uint256 a, uint256 b) internal pure returns (uint256) {\r\n        assert(b > 0);\r\n        // Solidity automatically throws when dividing by 0\r\n        uint256 c = a / b;\r\n        assert(a == b * c + a % b);\r\n        // There is no case in which this doesn't hold\r\n        return c;\r\n    }\r\n\r\n    function sub(uint256 a, uint256 b) internal pure returns (uint256) {\r\n        assert(b <= a);\r\n        return a - b;\r\n    }\r\n\r\n    function add(uint256 a, uint256 b) internal pure returns (uint256) {\r\n        uint256 c = a + b;\r\n        assert(c >= a);\r\n        return c;\r\n    }\r\n}\r\n\r\ncontract Ownable {\r\n    address payable owner;\r\n\r\n    event OwnershipTransferred(address indexed previousOwner, address indexed newOwner);\r\n\r\n    constructor() public {\r\n        owner = payable(msg.sender);\r\n    }\r\n\r\n    modifier onlyOwner() {\r\n        require(msg.sender == owner);\r\n        _;\r\n    }\r\n\r\n    function transferOwnership(address payable newOwner) onlyOwner public {\r\n        require(newOwner != address(0));\r\n        emit OwnershipTransferred(owner, newOwner);\r\n        owner = newOwner;\r\n    }\r\n\r\n}\r\n\r\n\r\ninterface BUSDToken {\r\n    function transfer(address recipient, uint256 amount) external returns (bool);\r\n\r\n    function transferFrom(address sender, address recipient, uint256 amount) external returns (bool);\r\n\r\n    function balanceOf(address _owner) external returns (uint256 balance);\r\n    \r\n    function approve(address spender, uint value) external returns (bool);\r\n\r\n}\r\n\r\ninterface NovaToken {\r\n    function transfer(address recipient, uint256 amount) external returns (bool);\r\n\r\n    function transferFrom(address sender, address recipient, uint256 amount) external returns (bool);\r\n\r\n    function balanceOf(address _owner) external returns (uint256 balance);\r\n}\r\n\r\ncontract Whitelisted is Ownable {\r\n    mapping(address => uint8) public whitelist;\r\n    mapping(address => bool) public provider;\r\n\r\n    // Only whitelisted\r\n    modifier onlyWhitelisted {\r\n        require(isWhitelisted(msg.sender));\r\n        _;\r\n    }\r\n\r\n    modifier onlyProvider {\r\n        require(isProvider(msg.sender));\r\n        _;\r\n    }\r\n\r\n    function isProvider(address _provider) public view returns (bool){\r\n        return provider[_provider] == true ? true : false;\r\n    }\r\n    // Set new provider\r\n    function setProvider(address _provider) public onlyOwner {\r\n        provider[_provider] = true;\r\n    }\r\n    // Deactivate current provider\r\n    function deactivateProvider(address _provider) public onlyOwner {\r\n        require(provider[_provider] == true);\r\n        provider[_provider] = false;\r\n    }\r\n    // Set purchaser to whitelist with zone code\r\n    function joinWhitelist(address _purchaser, uint8 _zone) public onlyOwner{\r\n        whitelist[_purchaser] = _zone;\r\n    }\r\n    // Delete purchaser from whitelist\r\n    function deleteFromWhitelist(address _purchaser) public onlyOwner {\r\n        whitelist[_purchaser] = 0;\r\n    }\r\n   \r\n    // Check if purchaser is whitelisted : return true or false\r\n    function isWhitelisted(address _purchaser) public view returns (bool){\r\n        return whitelist[_purchaser] > 0;\r\n    }\r\n}\r\n\r\ncontract NovaSwap is Ownable, Whitelisted {\r\n    using SafeMath for uint256;\r\n\r\n    event Swap(address indexed user, uint256 inAmount, uint256 outAmount);\r\n\r\n    BUSDToken public token0;\r\n    NovaToken public token1;\r\n\r\n    bool public isSwapStarted = false;\r\n\r\n      //Will set to 980 when 1 Nova = $1, set to 1960 when 1 Nova = $2\r\n    uint256 public swapRate = 980;\r\n\r\n    uint256 public MIN_SWAP_RATE = 980;\r\n\r\n    uint256 public MAX_SWAP_RATE = 1960;\r\n    \r\n    uint256 public maxBuy = 400000000000000000000; //408163270000000000000\r\n  \r\n    constructor(\r\n        address payable _owner,\r\n        BUSDToken _BUSDToken,\r\n        NovaToken _novaToken\r\n    ) public {\r\n        token0 = _BUSDToken;\r\n        token1 = _novaToken;\r\n        owner = _owner;\r\n        \r\n    }\r\n \r\n\r\n    function swap(uint256 inAmount) public onlyWhitelisted{\r\n        uint256 quota = token1.balanceOf(address(this));\r\n        uint256 total = token0.balanceOf(msg.sender);\r\n        uint256 outAmount = inAmount.mul(1000).div(swapRate);\r\n    \r\n\r\n        require(isSwapStarted == true, 'ShibanovaSwap::Swap not started');\r\n        require(inAmount <= total, \"ShibanovaSwap::Insufficient funds\");\r\n        require(outAmount <= quota, \"ShibanovaSwap::Quota not enough\");\r\n        require(token1.balanceOf(msg.sender).add(outAmount).div(980).mul(1000) <= maxBuy, \"ShibanovaSwap: :Reached Max Buy\");\r\n\r\n        token0.transferFrom(msg.sender, address(this), inAmount);\r\n        token1.transfer(msg.sender, outAmount);\r\n\r\n        emit Swap(msg.sender, inAmount, outAmount);\r\n    }\r\n\r\n    function startSwap() public onlyOwner returns (bool) {\r\n        isSwapStarted = true;\r\n        return true;\r\n    }\r\n\r\n    function stopSwap() public onlyOwner returns (bool) {\r\n        isSwapStarted = false;\r\n        return true;\r\n    }\r\n\r\n    function setSwapRate(uint256 newRate) public onlyOwner returns (bool) {\r\n        require(newRate <= MAX_SWAP_RATE, 'ShibanovaSwap::MAX_SWAP_RATE 980');\r\n        require(newRate >= MIN_SWAP_RATE, 'ShibanovaSwap::MIN_SWAP_RATE 490');\r\n\r\n        swapRate = newRate;\r\n        return true;\r\n    }\r\n\r\n   function recoverLostBNB() public onlyOwner {\r\n        address payable _owner = msg.sender;\r\n        _owner.transfer(address(this).balance);\r\n    }\r\n\r\n    // Ensure requested tokens aren't users SHIBANOVA tokens\r\n    function WithdrawBUSD(address _token, uint256 amount) public onlyOwner {\r\n        BUSDToken(_token).transfer(msg.sender, amount);\r\n    }\r\n\r\n    function WithdrawNova(address _token, uint256 amount) public onlyOwner {\r\n        NovaToken(_token).transfer(msg.sender, amount);\r\n    }\r\n}",
  "sourcePath": "D:/DeployShiba/Presalepage/defitutorial/src/contracts/NovaSwap.sol",
  "compiler": {
    "name": "solc",
    "version": "0.6.2+commit.bacdbe57.Emscripten.clang"
  },
  "schemaVersion": "3.2.3",
  "updatedAt": "2021-06-25T03:02:51.279Z",
  "devdoc": {
    "methods": {}
  },
  "userdoc": {
    "methods": {}
  }
}